{
  "_format": "hh-sol-artifact-1",
  "contractName": "DegenToken",
  "sourceName": "contracts/DegenToken.sol",
  "abi": [
    {
      "inputs": [],
      "stateMutability": "nonpayable",
      "type": "constructor"
    },
    {
      "anonymous": false,
      "inputs": [
        {
          "indexed": true,
          "internalType": "address",
          "name": "owner",
          "type": "address"
        },
        {
          "indexed": true,
          "internalType": "address",
          "name": "spender",
          "type": "address"
        },
        {
          "indexed": false,
          "internalType": "uint256",
          "name": "value",
          "type": "uint256"
        }
      ],
      "name": "Approval",
      "type": "event"
    },
    {
      "anonymous": false,
      "inputs": [
        {
          "indexed": true,
          "internalType": "address",
          "name": "user",
          "type": "address"
        },
        {
          "indexed": false,
          "internalType": "string",
          "name": "item",
          "type": "string"
        }
      ],
      "name": "ItemRedeemed",
      "type": "event"
    },
    {
      "anonymous": false,
      "inputs": [
        {
          "indexed": true,
          "internalType": "address",
          "name": "previousOwner",
          "type": "address"
        },
        {
          "indexed": true,
          "internalType": "address",
          "name": "newOwner",
          "type": "address"
        }
      ],
      "name": "OwnershipTransferred",
      "type": "event"
    },
    {
      "anonymous": false,
      "inputs": [
        {
          "indexed": true,
          "internalType": "address",
          "name": "from",
          "type": "address"
        },
        {
          "indexed": true,
          "internalType": "address",
          "name": "to",
          "type": "address"
        },
        {
          "indexed": false,
          "internalType": "uint256",
          "name": "value",
          "type": "uint256"
        }
      ],
      "name": "Transfer",
      "type": "event"
    },
    {
      "inputs": [
        {
          "internalType": "address",
          "name": "owner",
          "type": "address"
        },
        {
          "internalType": "address",
          "name": "spender",
          "type": "address"
        }
      ],
      "name": "allowance",
      "outputs": [
        {
          "internalType": "uint256",
          "name": "",
          "type": "uint256"
        }
      ],
      "stateMutability": "view",
      "type": "function"
    },
    {
      "inputs": [
        {
          "internalType": "address",
          "name": "spender",
          "type": "address"
        },
        {
          "internalType": "uint256",
          "name": "amount",
          "type": "uint256"
        }
      ],
      "name": "approve",
      "outputs": [
        {
          "internalType": "bool",
          "name": "",
          "type": "bool"
        }
      ],
      "stateMutability": "nonpayable",
      "type": "function"
    },
    {
      "inputs": [
        {
          "internalType": "address",
          "name": "account",
          "type": "address"
        }
      ],
      "name": "balanceOf",
      "outputs": [
        {
          "internalType": "uint256",
          "name": "",
          "type": "uint256"
        }
      ],
      "stateMutability": "view",
      "type": "function"
    },
    {
      "inputs": [
        {
          "internalType": "uint256",
          "name": "amount",
          "type": "uint256"
        }
      ],
      "name": "burn",
      "outputs": [],
      "stateMutability": "nonpayable",
      "type": "function"
    },
    {
      "inputs": [
        {
          "internalType": "address",
          "name": "account",
          "type": "address"
        }
      ],
      "name": "checkBalance",
      "outputs": [
        {
          "internalType": "uint256",
          "name": "",
          "type": "uint256"
        }
      ],
      "stateMutability": "view",
      "type": "function"
    },
    {
      "inputs": [],
      "name": "decimals",
      "outputs": [
        {
          "internalType": "uint8",
          "name": "",
          "type": "uint8"
        }
      ],
      "stateMutability": "view",
      "type": "function"
    },
    {
      "inputs": [
        {
          "internalType": "address",
          "name": "spender",
          "type": "address"
        },
        {
          "internalType": "uint256",
          "name": "subtractedValue",
          "type": "uint256"
        }
      ],
      "name": "decreaseAllowance",
      "outputs": [
        {
          "internalType": "bool",
          "name": "",
          "type": "bool"
        }
      ],
      "stateMutability": "nonpayable",
      "type": "function"
    },
    {
      "inputs": [
        {
          "internalType": "address",
          "name": "spender",
          "type": "address"
        },
        {
          "internalType": "uint256",
          "name": "addedValue",
          "type": "uint256"
        }
      ],
      "name": "increaseAllowance",
      "outputs": [
        {
          "internalType": "bool",
          "name": "",
          "type": "bool"
        }
      ],
      "stateMutability": "nonpayable",
      "type": "function"
    },
    {
      "inputs": [
        {
          "internalType": "string",
          "name": "",
          "type": "string"
        }
      ],
      "name": "itemToTokens",
      "outputs": [
        {
          "internalType": "uint256",
          "name": "",
          "type": "uint256"
        }
      ],
      "stateMutability": "view",
      "type": "function"
    },
    {
      "inputs": [
        {
          "internalType": "address",
          "name": "to",
          "type": "address"
        },
        {
          "internalType": "uint256",
          "name": "amount",
          "type": "uint256"
        }
      ],
      "name": "mint",
      "outputs": [],
      "stateMutability": "nonpayable",
      "type": "function"
    },
    {
      "inputs": [],
      "name": "name",
      "outputs": [
        {
          "internalType": "string",
          "name": "",
          "type": "string"
        }
      ],
      "stateMutability": "view",
      "type": "function"
    },
    {
      "inputs": [],
      "name": "owner",
      "outputs": [
        {
          "internalType": "address",
          "name": "",
          "type": "address"
        }
      ],
      "stateMutability": "view",
      "type": "function"
    },
    {
      "inputs": [
        {
          "internalType": "string",
          "name": "item",
          "type": "string"
        }
      ],
      "name": "redeemForItems",
      "outputs": [],
      "stateMutability": "nonpayable",
      "type": "function"
    },
    {
      "inputs": [],
      "name": "renounceOwnership",
      "outputs": [],
      "stateMutability": "nonpayable",
      "type": "function"
    },
    {
      "inputs": [],
      "name": "symbol",
      "outputs": [
        {
          "internalType": "string",
          "name": "",
          "type": "string"
        }
      ],
      "stateMutability": "view",
      "type": "function"
    },
    {
      "inputs": [],
      "name": "totalSupply",
      "outputs": [
        {
          "internalType": "uint256",
          "name": "",
          "type": "uint256"
        }
      ],
      "stateMutability": "view",
      "type": "function"
    },
    {
      "inputs": [
        {
          "internalType": "address",
          "name": "to",
          "type": "address"
        },
        {
          "internalType": "uint256",
          "name": "amount",
          "type": "uint256"
        }
      ],
      "name": "transfer",
      "outputs": [
        {
          "internalType": "bool",
          "name": "",
          "type": "bool"
        }
      ],
      "stateMutability": "nonpayable",
      "type": "function"
    },
    {
      "inputs": [
        {
          "internalType": "address",
          "name": "from",
          "type": "address"
        },
        {
          "internalType": "address",
          "name": "to",
          "type": "address"
        },
        {
          "internalType": "uint256",
          "name": "amount",
          "type": "uint256"
        }
      ],
      "name": "transferFrom",
      "outputs": [
        {
          "internalType": "bool",
          "name": "",
          "type": "bool"
        }
      ],
      "stateMutability": "nonpayable",
      "type": "function"
    },
    {
      "inputs": [
        {
          "internalType": "address",
          "name": "newOwner",
          "type": "address"
        }
      ],
      "name": "transferOwnership",
      "outputs": [],
      "stateMutability": "nonpayable",
      "type": "function"
    },
    {
      "inputs": [
        {
          "internalType": "address",
          "name": "recipient",
          "type": "address"
        },
        {
          "internalType": "uint256",
          "name": "amount",
          "type": "uint256"
        }
      ],
      "name": "transfer_amount",
      "outputs": [
        {
          "internalType": "bool",
          "name": "",
          "type": "bool"
        }
      ],
      "stateMutability": "nonpayable",
      "type": "function"
    }
  ],
  "bytecode": "0x60806040523480156200001157600080fd5b506040518060400160405280600581526020017f446567656e0000000000000000000000000000000000000000000000000000008152506040518060400160405280600381526020017f44474e000000000000000000000000000000000000000000000000000000000081525081600390816200008f9190620004a2565b508060049081620000a19190620004a2565b505050620000c4620000b86200015a60201b60201c565b6200016260201b60201c565b60016006604051620000d690620005e4565b90815260200160405180910390208190555060026006604051620000fa906200064b565b908152602001604051809103902081905550600360066040516200011e90620006b2565b90815260200160405180910390208190555060046006604051620001429062000719565b90815260200160405180910390208190555062000730565b600033905090565b6000600560009054906101000a900473ffffffffffffffffffffffffffffffffffffffff16905081600560006101000a81548173ffffffffffffffffffffffffffffffffffffffff021916908373ffffffffffffffffffffffffffffffffffffffff1602179055508173ffffffffffffffffffffffffffffffffffffffff168173ffffffffffffffffffffffffffffffffffffffff167f8be0079c531659141344cd1fd0a4f28419497f9722a3daafe3b4186f6b6457e060405160405180910390a35050565b600081519050919050565b7f4e487b7100000000000000000000000000000000000000000000000000000000600052604160045260246000fd5b7f4e487b7100000000000000000000000000000000000000000000000000000000600052602260045260246000fd5b60006002820490506001821680620002aa57607f821691505b602082108103620002c057620002bf62000262565b5b50919050565b60008190508160005260206000209050919050565b60006020601f8301049050919050565b600082821b905092915050565b6000600883026200032a7fffffffffffffffffffffffffffffffffffffffffffffffffffffffffffffffff82620002eb565b620003368683620002eb565b95508019841693508086168417925050509392505050565b6000819050919050565b6000819050919050565b6000620003836200037d62000377846200034e565b62000358565b6200034e565b9050919050565b6000819050919050565b6200039f8362000362565b620003b7620003ae826200038a565b848454620002f8565b825550505050565b600090565b620003ce620003bf565b620003db81848462000394565b505050565b5b818110156200040357620003f7600082620003c4565b600181019050620003e1565b5050565b601f82111562000452576200041c81620002c6565b6200042784620002db565b8101602085101562000437578190505b6200044f6200044685620002db565b830182620003e0565b50505b505050565b600082821c905092915050565b6000620004776000198460080262000457565b1980831691505092915050565b600062000492838362000464565b9150826002028217905092915050565b620004ad8262000228565b67ffffffffffffffff811115620004c957620004c862000233565b5b620004d5825462000291565b620004e282828562000407565b600060209050601f8311600181146200051a576000841562000505578287015190505b62000511858262000484565b86555062000581565b601f1984166200052a86620002c6565b60005b8281101562000554578489015182556001820191506020850194506020810190506200052d565b8683101562000574578489015162000570601f89168262000464565b8355505b6001600288020188555050505b505050505050565b600081905092915050565b7f5368697274000000000000000000000000000000000000000000000000000000600082015250565b6000620005cc60058362000589565b9150620005d98262000594565b600582019050919050565b6000620005f182620005bd565b9150819050919050565b7f4a65616e73000000000000000000000000000000000000000000000000000000600082015250565b60006200063360058362000589565b91506200064082620005fb565b600582019050919050565b6000620006588262000624565b9150819050919050565b7f53686f6573000000000000000000000000000000000000000000000000000000600082015250565b60006200069a60058362000589565b9150620006a78262000662565b600582019050919050565b6000620006bf826200068b565b9150819050919050565b7f47756e536b696e00000000000000000000000000000000000000000000000000600082015250565b60006200070160078362000589565b91506200070e82620006c9565b600782019050919050565b60006200072682620006f2565b9150819050919050565b61211f80620007406000396000f3fe608060405234801561001057600080fd5b506004361061012c5760003560e01c806370a08231116100ad578063a457c2d711610071578063a457c2d714610345578063a9059cbb14610375578063d328835d146103a5578063dd62ed3e146103d5578063f2fde38b146104055761012c565b806370a08231146102b3578063715018a6146102e35780638d14f18a146102ed5780638da5cb5b1461030957806395d89b41146103275761012c565b8063313ce567116100f4578063313ce567146101fd578063395093511461021b57806340c10f191461024b57806342966c68146102675780635f515226146102835761012c565b806306fdde0314610131578063095ea7b31461014f5780630e43c7571461017f57806318160ddd146101af57806323b872dd146101cd575b600080fd5b610139610421565b60405161014691906113cd565b60405180910390f35b61016960048036038101906101649190611497565b6104b3565b60405161017691906114f2565b60405180910390f35b61019960048036038101906101949190611497565b6104d6565b6040516101a691906114f2565b60405180910390f35b6101b76104ea565b6040516101c4919061151c565b60405180910390f35b6101e760048036038101906101e29190611537565b6104f4565b6040516101f491906114f2565b60405180910390f35b610205610523565b60405161021291906115a6565b60405180910390f35b61023560048036038101906102309190611497565b61052c565b60405161024291906114f2565b60405180910390f35b61026560048036038101906102609190611497565b610563565b005b610281600480360381019061027c91906115c1565b610579565b005b61029d600480360381019061029891906115ee565b610614565b6040516102aa919061151c565b60405180910390f35b6102cd60048036038101906102c891906115ee565b610626565b6040516102da919061151c565b60405180910390f35b6102eb61066e565b005b61030760048036038101906103029190611750565b610682565b005b61031161076b565b60405161031e91906117a8565b60405180910390f35b61032f610795565b60405161033c91906113cd565b60405180910390f35b61035f600480360381019061035a9190611497565b610827565b60405161036c91906114f2565b60405180910390f35b61038f600480360381019061038a9190611497565b61089e565b60405161039c91906114f2565b60405180910390f35b6103bf60048036038101906103ba9190611750565b6108c1565b6040516103cc919061151c565b60405180910390f35b6103ef60048036038101906103ea91906117c3565b6108ef565b6040516103fc919061151c565b60405180910390f35b61041f600480360381019061041a91906115ee565b610976565b005b60606003805461043090611832565b80601f016020809104026020016040519081016040528092919081815260200182805461045c90611832565b80156104a95780601f1061047e576101008083540402835291602001916104a9565b820191906000526020600020905b81548152906001019060200180831161048c57829003601f168201915b5050505050905090565b6000806104be6109f9565b90506104cb818585610a01565b600191505092915050565b60006104e2838361089e565b905092915050565b6000600254905090565b6000806104ff6109f9565b905061050c858285610bca565b610517858585610c56565b60019150509392505050565b60006012905090565b6000806105376109f9565b905061055881858561054985896108ef565b6105539190611892565b610a01565b600191505092915050565b61056b610ecc565b6105758282610f4a565b5050565b600081116105bc576040517f08c379a00000000000000000000000000000000000000000000000000000000081526004016105b390611912565b60405180910390fd5b806105c633610626565b1015610607576040517f08c379a00000000000000000000000000000000000000000000000000000000081526004016105fe9061197e565b60405180910390fd5b61061133826110a0565b50565b600061061f82610626565b9050919050565b60008060008373ffffffffffffffffffffffffffffffffffffffff1673ffffffffffffffffffffffffffffffffffffffff168152602001908152602001600020549050919050565b610676610ecc565b610680600061126d565b565b60068160405161069291906119da565b9081526020016040518091039020546106aa33610626565b10156106eb576040517f08c379a00000000000000000000000000000000000000000000000000000000081526004016106e290611a63565b60405180910390fd5b60006006826040516106fd91906119da565b9081526020016040518091039020549050610719333083610c56565b3373ffffffffffffffffffffffffffffffffffffffff167f05e1c33a66a413f8f509a81827dac6f951c66606add81dce241a77a8c81c16ed8360405161075f91906113cd565b60405180910390a25050565b6000600560009054906101000a900473ffffffffffffffffffffffffffffffffffffffff16905090565b6060600480546107a490611832565b80601f01602080910402602001604051908101604052809291908181526020018280546107d090611832565b801561081d5780601f106107f25761010080835404028352916020019161081d565b820191906000526020600020905b81548152906001019060200180831161080057829003601f168201915b5050505050905090565b6000806108326109f9565b9050600061084082866108ef565b905083811015610885576040517f08c379a000000000000000000000000000000000000000000000000000000000815260040161087c90611af5565b60405180910390fd5b6108928286868403610a01565b60019250505092915050565b6000806108a96109f9565b90506108b6818585610c56565b600191505092915050565b6006818051602081018201805184825260208301602085012081835280955050505050506000915090505481565b6000600160008473ffffffffffffffffffffffffffffffffffffffff1673ffffffffffffffffffffffffffffffffffffffff16815260200190815260200160002060008373ffffffffffffffffffffffffffffffffffffffff1673ffffffffffffffffffffffffffffffffffffffff16815260200190815260200160002054905092915050565b61097e610ecc565b600073ffffffffffffffffffffffffffffffffffffffff168173ffffffffffffffffffffffffffffffffffffffff16036109ed576040517f08c379a00000000000000000000000000000000000000000000000000000000081526004016109e490611b87565b60405180910390fd5b6109f68161126d565b50565b600033905090565b600073ffffffffffffffffffffffffffffffffffffffff168373ffffffffffffffffffffffffffffffffffffffff1603610a70576040517f08c379a0000000000000000000000000000000000000000000000000000000008152600401610a6790611c19565b60405180910390fd5b600073ffffffffffffffffffffffffffffffffffffffff168273ffffffffffffffffffffffffffffffffffffffff1603610adf576040517f08c379a0000000000000000000000000000000000000000000000000000000008152600401610ad690611cab565b60405180910390fd5b80600160008573ffffffffffffffffffffffffffffffffffffffff1673ffffffffffffffffffffffffffffffffffffffff16815260200190815260200160002060008473ffffffffffffffffffffffffffffffffffffffff1673ffffffffffffffffffffffffffffffffffffffff168152602001908152602001600020819055508173ffffffffffffffffffffffffffffffffffffffff168373ffffffffffffffffffffffffffffffffffffffff167f8c5be1e5ebec7d5bd14f71427d1e84f3dd0314c0f7b2291e5b200ac8c7c3b92583604051610bbd919061151c565b60405180910390a3505050565b6000610bd684846108ef565b90507fffffffffffffffffffffffffffffffffffffffffffffffffffffffffffffffff8114610c505781811015610c42576040517f08c379a0000000000000000000000000000000000000000000000000000000008152600401610c3990611d17565b60405180910390fd5b610c4f8484848403610a01565b5b50505050565b600073ffffffffffffffffffffffffffffffffffffffff168373ffffffffffffffffffffffffffffffffffffffff1603610cc5576040517f08c379a0000000000000000000000000000000000000000000000000000000008152600401610cbc90611da9565b60405180910390fd5b600073ffffffffffffffffffffffffffffffffffffffff168273ffffffffffffffffffffffffffffffffffffffff1603610d34576040517f08c379a0000000000000000000000000000000000000000000000000000000008152600401610d2b90611e3b565b60405180910390fd5b610d3f838383611333565b60008060008573ffffffffffffffffffffffffffffffffffffffff1673ffffffffffffffffffffffffffffffffffffffff16815260200190815260200160002054905081811015610dc5576040517f08c379a0000000000000000000000000000000000000000000000000000000008152600401610dbc90611ecd565b60405180910390fd5b8181036000808673ffffffffffffffffffffffffffffffffffffffff1673ffffffffffffffffffffffffffffffffffffffff16815260200190815260200160002081905550816000808573ffffffffffffffffffffffffffffffffffffffff1673ffffffffffffffffffffffffffffffffffffffff168152602001908152602001600020600082825401925050819055508273ffffffffffffffffffffffffffffffffffffffff168473ffffffffffffffffffffffffffffffffffffffff167fddf252ad1be2c89b69c2b068fc378daa952ba7f163c4a11628f55a4df523b3ef84604051610eb3919061151c565b60405180910390a3610ec6848484611338565b50505050565b610ed46109f9565b73ffffffffffffffffffffffffffffffffffffffff16610ef261076b565b73ffffffffffffffffffffffffffffffffffffffff1614610f48576040517f08c379a0000000000000000000000000000000000000000000000000000000008152600401610f3f90611f39565b60405180910390fd5b565b600073ffffffffffffffffffffffffffffffffffffffff168273ffffffffffffffffffffffffffffffffffffffff1603610fb9576040517f08c379a0000000000000000000000000000000000000000000000000000000008152600401610fb090611fa5565b60405180910390fd5b610fc560008383611333565b8060026000828254610fd79190611892565b92505081905550806000808473ffffffffffffffffffffffffffffffffffffffff1673ffffffffffffffffffffffffffffffffffffffff168152602001908152602001600020600082825401925050819055508173ffffffffffffffffffffffffffffffffffffffff16600073ffffffffffffffffffffffffffffffffffffffff167fddf252ad1be2c89b69c2b068fc378daa952ba7f163c4a11628f55a4df523b3ef83604051611088919061151c565b60405180910390a361109c60008383611338565b5050565b600073ffffffffffffffffffffffffffffffffffffffff168273ffffffffffffffffffffffffffffffffffffffff160361110f576040517f08c379a000000000000000000000000000000000000000000000000000000000815260040161110690612037565b60405180910390fd5b61111b82600083611333565b60008060008473ffffffffffffffffffffffffffffffffffffffff1673ffffffffffffffffffffffffffffffffffffffff168152602001908152602001600020549050818110156111a1576040517f08c379a0000000000000000000000000000000000000000000000000000000008152600401611198906120c9565b60405180910390fd5b8181036000808573ffffffffffffffffffffffffffffffffffffffff1673ffffffffffffffffffffffffffffffffffffffff1681526020019081526020016000208190555081600260008282540392505081905550600073ffffffffffffffffffffffffffffffffffffffff168373ffffffffffffffffffffffffffffffffffffffff167fddf252ad1be2c89b69c2b068fc378daa952ba7f163c4a11628f55a4df523b3ef84604051611254919061151c565b60405180910390a361126883600084611338565b505050565b6000600560009054906101000a900473ffffffffffffffffffffffffffffffffffffffff16905081600560006101000a81548173ffffffffffffffffffffffffffffffffffffffff021916908373ffffffffffffffffffffffffffffffffffffffff1602179055508173ffffffffffffffffffffffffffffffffffffffff168173ffffffffffffffffffffffffffffffffffffffff167f8be0079c531659141344cd1fd0a4f28419497f9722a3daafe3b4186f6b6457e060405160405180910390a35050565b505050565b505050565b600081519050919050565b600082825260208201905092915050565b60005b8381101561137757808201518184015260208101905061135c565b60008484015250505050565b6000601f19601f8301169050919050565b600061139f8261133d565b6113a98185611348565b93506113b9818560208601611359565b6113c281611383565b840191505092915050565b600060208201905081810360008301526113e78184611394565b905092915050565b6000604051905090565b600080fd5b600080fd5b600073ffffffffffffffffffffffffffffffffffffffff82169050919050565b600061142e82611403565b9050919050565b61143e81611423565b811461144957600080fd5b50565b60008135905061145b81611435565b92915050565b6000819050919050565b61147481611461565b811461147f57600080fd5b50565b6000813590506114918161146b565b92915050565b600080604083850312156114ae576114ad6113f9565b5b60006114bc8582860161144c565b92505060206114cd85828601611482565b9150509250929050565b60008115159050919050565b6114ec816114d7565b82525050565b600060208201905061150760008301846114e3565b92915050565b61151681611461565b82525050565b6000602082019050611531600083018461150d565b92915050565b6000806000606084860312156115505761154f6113f9565b5b600061155e8682870161144c565b935050602061156f8682870161144c565b925050604061158086828701611482565b9150509250925092565b600060ff82169050919050565b6115a08161158a565b82525050565b60006020820190506115bb6000830184611597565b92915050565b6000602082840312156115d7576115d66113f9565b5b60006115e584828501611482565b91505092915050565b600060208284031215611604576116036113f9565b5b60006116128482850161144c565b91505092915050565b600080fd5b600080fd5b7f4e487b7100000000000000000000000000000000000000000000000000000000600052604160045260246000fd5b61165d82611383565b810181811067ffffffffffffffff8211171561167c5761167b611625565b5b80604052505050565b600061168f6113ef565b905061169b8282611654565b919050565b600067ffffffffffffffff8211156116bb576116ba611625565b5b6116c482611383565b9050602081019050919050565b82818337600083830152505050565b60006116f36116ee846116a0565b611685565b90508281526020810184848401111561170f5761170e611620565b5b61171a8482856116d1565b509392505050565b600082601f8301126117375761173661161b565b5b81356117478482602086016116e0565b91505092915050565b600060208284031215611766576117656113f9565b5b600082013567ffffffffffffffff811115611784576117836113fe565b5b61179084828501611722565b91505092915050565b6117a281611423565b82525050565b60006020820190506117bd6000830184611799565b92915050565b600080604083850312156117da576117d96113f9565b5b60006117e88582860161144c565b92505060206117f98582860161144c565b9150509250929050565b7f4e487b7100000000000000000000000000000000000000000000000000000000600052602260045260246000fd5b6000600282049050600182168061184a57607f821691505b60208210810361185d5761185c611803565b5b50919050565b7f4e487b7100000000000000000000000000000000000000000000000000000000600052601160045260246000fd5b600061189d82611461565b91506118a883611461565b92508282019050808211156118c0576118bf611863565b5b92915050565b7f416d6f756e74206d7573742062652067726561746572207468616e2030000000600082015250565b60006118fc601d83611348565b9150611907826118c6565b602082019050919050565b6000602082019050818103600083015261192b816118ef565b9050919050565b7f496e73756666696369656e742062616c616e6365000000000000000000000000600082015250565b6000611968601483611348565b915061197382611932565b602082019050919050565b600060208201905081810360008301526119978161195b565b9050919050565b600081905092915050565b60006119b48261133d565b6119be818561199e565b93506119ce818560208601611359565b80840191505092915050565b60006119e682846119a9565b915081905092915050565b7f496e73756666696369656e742062616c616e636520666f72207468697320697460008201527f656d000000000000000000000000000000000000000000000000000000000000602082015250565b6000611a4d602283611348565b9150611a58826119f1565b604082019050919050565b60006020820190508181036000830152611a7c81611a40565b9050919050565b7f45524332303a2064656372656173656420616c6c6f77616e63652062656c6f7760008201527f207a65726f000000000000000000000000000000000000000000000000000000602082015250565b6000611adf602583611348565b9150611aea82611a83565b604082019050919050565b60006020820190508181036000830152611b0e81611ad2565b9050919050565b7f4f776e61626c653a206e6577206f776e657220697320746865207a65726f206160008201527f6464726573730000000000000000000000000000000000000000000000000000602082015250565b6000611b71602683611348565b9150611b7c82611b15565b604082019050919050565b60006020820190508181036000830152611ba081611b64565b9050919050565b7f45524332303a20617070726f76652066726f6d20746865207a65726f2061646460008201527f7265737300000000000000000000000000000000000000000000000000000000602082015250565b6000611c03602483611348565b9150611c0e82611ba7565b604082019050919050565b60006020820190508181036000830152611c3281611bf6565b9050919050565b7f45524332303a20617070726f766520746f20746865207a65726f20616464726560008201527f7373000000000000000000000000000000000000000000000000000000000000602082015250565b6000611c95602283611348565b9150611ca082611c39565b604082019050919050565b60006020820190508181036000830152611cc481611c88565b9050919050565b7f45524332303a20696e73756666696369656e7420616c6c6f77616e6365000000600082015250565b6000611d01601d83611348565b9150611d0c82611ccb565b602082019050919050565b60006020820190508181036000830152611d3081611cf4565b9050919050565b7f45524332303a207472616e736665722066726f6d20746865207a65726f20616460008201527f6472657373000000000000000000000000000000000000000000000000000000602082015250565b6000611d93602583611348565b9150611d9e82611d37565b604082019050919050565b60006020820190508181036000830152611dc281611d86565b9050919050565b7f45524332303a207472616e7366657220746f20746865207a65726f206164647260008201527f6573730000000000000000000000000000000000000000000000000000000000602082015250565b6000611e25602383611348565b9150611e3082611dc9565b604082019050919050565b60006020820190508181036000830152611e5481611e18565b9050919050565b7f45524332303a207472616e7366657220616d6f756e742065786365656473206260008201527f616c616e63650000000000000000000000000000000000000000000000000000602082015250565b6000611eb7602683611348565b9150611ec282611e5b565b604082019050919050565b60006020820190508181036000830152611ee681611eaa565b9050919050565b7f4f776e61626c653a2063616c6c6572206973206e6f7420746865206f776e6572600082015250565b6000611f23602083611348565b9150611f2e82611eed565b602082019050919050565b60006020820190508181036000830152611f5281611f16565b9050919050565b7f45524332303a206d696e7420746f20746865207a65726f206164647265737300600082015250565b6000611f8f601f83611348565b9150611f9a82611f59565b602082019050919050565b60006020820190508181036000830152611fbe81611f82565b9050919050565b7f45524332303a206275726e2066726f6d20746865207a65726f2061646472657360008201527f7300000000000000000000000000000000000000000000000000000000000000602082015250565b6000612021602183611348565b915061202c82611fc5565b604082019050919050565b6000602082019050818103600083015261205081612014565b9050919050565b7f45524332303a206275726e20616d6f756e7420657863656564732062616c616e60008201527f6365000000000000000000000000000000000000000000000000000000000000602082015250565b60006120b3602283611348565b91506120be82612057565b604082019050919050565b600060208201905081810360008301526120e2816120a6565b905091905056fea264697066735822122016f6a5fa30ad23779ab89256b89e919d3a5a9a1dbd558baf822179853f03887b64736f6c63430008120033",
  "linkReferences": {},
  "deployedLinkReferences": {}
}